:020000040800F2
:10000000180A0020AD010008411B0008011A000871
:100010003D1B0008811400080D25000800000000A9
:10002000000000000000000000000000CD1D0008DE
:100030008515000800000000C91B0008ED1E00081F
:10004000C7010008C7010008C7010008C701000870
:10005000C7010008C7010008C7010008C701000860
:10006000C7010008C7010008C7010008C701000850
:10007000C7010008C7010008C7010008C701000840
:10008000C7010008C7010008C7010008C701000830
:10009000C7010008C7010008C7010008C701000820
:1000A000C7010008C7010008C7010008C701000810
:1000B000C7010008511F0008C7010008C701000858
:1000C000C7010008C7010008C7010008C7010008F0
:1000D000C70100080D21000895210008C70100088C
:1000E00019160008C7010008C701000800F002F84F
:1000F00000F04DF80AA090E8000C82448344AAF175
:100100000107DA4501D100F042F8AFF2090EBAE872
:100110000F0013F0010F18BFFB1A43F0010318473B
:10012000B4350000D4350000103A24BF78C878C137
:10013000FAD8520724BF30C830C144BF04680C60ED
:10014000704700000023002400250026103A28BF35
:1001500078C1FBD8520728BF30C148BF0B60704739
:10016000662903F0D781642900F08280782900F0A5
:10017000BB80002070471FB500F05EFB040000202C
:10018000002102F099FDE0601FBD10B510BD00F028
:100190006BFC1146FFF7EFFF02F04EFA00F089FC0E
:1001A00003B4FFF7F2FF03BC02F0C6F90948804729
:1001B00009480047FEE7FEE7FEE7FEE7FEE7FEE749
:1001C000FEE7FEE7FEE7FEE704480549054A064B61
:1001D00070470000F11E0008ED0000081804002020
:1001E000180A00201806002018060020704700009A
:1001F0000FB4044910B503AA029800F00BFB10BC21
:100200005DF814FB400000202DE9F0410E46044645
:10021000002020622046E168884730B3252805D0B9
:10022000D4E901219047206A401CF2E7E1682046AA
:1002300000278847050018D0A5F14100192802D8E9
:1002400020354FF400673246294620462760FFF7E5
:1002500087FF40B1012804D0F61D26F007060836B6
:10026000D8E7361DD6E72846DAE7206ABDE8F081F0
:100270002DE9F0410646002410687529314616A57F
:1002800010D0AFF30080002802DA404213A507E047
:1002900031688A0701D512A502E0490704D511A5E6
:1002A000012401E0AFF3008000210A2206F12407B7
:1002B00009E0B0FBF2FCB0FBF2F302FB1C003030B3
:1002C00078541846491C0028F3D123462A46304664
:1002D000BDE8F04100F038B8000000002D0000003B
:1002E0002B0000002000000070B504460D4621469A
:1002F0001068AFF300802188090502D50F4A7A44BF
:1003000002E00E4A7A440E32002104F1240305E093
:1003100000F00F060009965D5E54491C0028F7D1D5
:1003200020780023000704D5702D02D009B10223E4
:1003300011322046BDE8704000F006B816330000C8
:1003400070477047704770472DE9F0470D46994652
:100350009246044600F124080168880604D5E06945
:1003600021F01001216000E00120A84201DD471BBF
:1003700000E00027A1697A1902EB0900081AA061C0
:100380002078C00602D42046AFF30080002608E0A3
:10039000D4E901211AF806009047206A401C761C17
:1003A00020624E45F4DB2078C0060AD52046AFF324
:1003B000008006E0D4E9012130209047206A401CEB
:1003C0002062381EA7F10107F4DC07E0D4E901211F
:1003D00018F805009047206A401C2062281EA5F1ED
:1003E0000105F3DC2046AFF300802078000602D53B
:1003F0000220BDE8F0870120FBE770472DE9FF4FA1
:100400000C461E464FF0FF378BB0D2E90001DDF8F5
:1004100060800A908A46C1F30A5505B93D4600211D
:1004200008464FF00000BAF1000F00F4400005DA72
:1004300000EB80004FF4400101EA50004FEA905970
:10044000B9F1010F00DDB9460A9850EA4A000ED012
:1004500044F61050A5F2FF3545432F14B8F1000FB4
:100460001ED07542291E1EDDC9F100021CE0B8F144
:10047000010F4FF0000001D0302103E0F24305E00E
:100480002154401CB042FBDB3046002200212154A5
:100490000B99C1F80880C1E900200FB0BDE8F08FCA
:1004A000BD1B6D1CDEE74A4600DA694206A800F073
:1004B00065FA06AB93E8070003AB83E807005046F4
:1004C0000A9900F03DFB8DE80700A0F500501F38A9
:1004D00000900398002D09DD42F21F014A460844AE
:1004E00003A90390684600F09CFD08E0A0F50050C9
:1004F0004A461F3803A90390684600F0A6FD8DE820
:1005000007000004000C03D04FF0FF30410800E06A
:100510001046B8F1000F03D00022009215461EE0ED
:10052000751E05D400F08CF9303262556D1EF9D578
:10053000B3460122084302D000227F1C04E0207849
:10054000302801D100227F1E002A099786D01DE0A5
:10055000112D07DA00F074F9303262556D1C50EA43
:100560000102F5D1084302D00098C8B10EE0002185
:10057000681E05E0235C625C63542254401E491CE3
:100580008142F7DBAB46A81B401E0990002004F80F
:100590000B000B98099AC0F80880C0E9002B7CE793
:1005A00011264FF0000859E72DE9F04F8846044620
:1005B000D21D22F0070191B0D1E90001CDE90A0175
:1005C00001F0A6FF02460B98C00F01D02D2007E0D6
:1005D0002068810701D52B2002E0202101EAC0001C
:1005E000032A099001D0072A05DB0346414620462D
:1005F00000F084F90BE12078800601D5E06900E085
:100600000620B8F1650F814606D0B8F1660F18D004
:10061000B8F1670F70D131E00020B9F1110F0090EF
:1006200001DB112301E009F101030AAA01A90CA8C9
:10063000FFF7E4FEDDE90C70002609F101058346B1
:1006400047E001204B4600904FF000470AAA01A95D
:100650000CA8FFF7D3FEDDE90DB00C995D4600262E
:1006600010B909F101000D18B9EB050003D4C0F170
:10067000FF3609F10105A5EB09002BE0B9F1010FE7
:1006800001DA4FF001090020B9F1110F009048463E
:1006900001DD112300E003460AAA01A90CA8FFF717
:1006A000ADFEDDE90C704D4600268346207800073C
:1006B0000AD4AB4500DA5D4601A8012D04DD4119DD
:1006C00011F8011C302907D04F4502DA17F1040F49
:1006D00004DA012082460FE06D1EEEE7002F02DCF7
:1006E000ED1B3E4403E0781CA84200DD7D1CB81BD6
:1006F00000F1010A4FF000472078000703D4AA4513
:1007000001DB4FF0FF3A0021B7F1004F0DF1430834
:100710008DF8431024D002202B23002F01DA7F42D2
:100720002D230A21021EA0F1010000DC5FB197FB1E
:10073000F1FC97FBF1F201FB1C7C17460CF1300C2D
:1007400008F801CDEEE7A8F1010003702188090542
:1007500001D5452100E06521A0F1010800F8011C48
:1007600009980FA9A1EB0807FF1D00B1012041194D
:1007700001EBEA70A1693844081A401EA061207894
:10078000C00602D42046AFF30080099828B1D4E90E
:1007900001219047206A401C20622078C00622D5A3
:1007A0002046AFF300801EE0002E04DBB34502DDDF
:1007B00001A8805D00E03020D4E901219047206A43
:1007C000401C2062761CAAF101005FEA000A0AD1EF
:1007D00000F032F8C0680168405CD4E9012190471C
:1007E000206A401C2062281EA5F10105DCDC07E020
:1007F000D4E9012118F8010B9047206A401C2062BF
:10080000381EA7F10107F3DC2046AFF30080032078
:1008100011B043E6074B70B50D467B4400F05BF822
:100820000446284600F018F910B14FF0FF3070BDB3
:10083000204670BDFF1D000000487047D403002013
:1008400030B5B0F10A024FEA900E71F100034EEAA2
:10085000817EB0EB0E0061EB91014FEA101E4EEA73
:10086000017E10EB0E0041EB11114FEA102E4EEA03
:10087000016E10EB0E0041EB11214FEA104E4EEAD3
:10088000014E10EB0E0041EB1141401841F1000107
:100890004FEAD00040EA41704FEAD10110EB8005E9
:1008A0004FEA810444EA907444EB01046D1944EB6F
:1008B0000404521BA3414FF0000348BF0A3200D585
:1008C00030BD401C41F1000130BD000001694A1CEF
:1008D00002610878704700B58FB0CDE90131002181
:1008E000059105497944CDE9031011466846FFF7A3
:1008F0008BFC0FB000BD0000E5FFFFFF2DE9F041CC
:100900001F46044603260168072A01F4006004DB41
:1009100008B116A505E016A503E008B115A500E08D
:1009200015A521F010002060A069C01EA0610FB1C4
:10093000401EA0612046AFF300804FB1D4E90121F1
:1009400038469047206A401C2062C01C206206E0A6
:10095000206AFAE7D4E9012115F8010B9047761EC9
:10096000F8D22046AFF30080BDE8F0814E414E0042
:100970006E616E00494E4600696E66002DE9F047D3
:10098000814616468AB0334878440DC88DE80D007C
:1009900030487844801C03AC0DC884E80D0041F653
:1009A0009B300844372190FBF1F290FBF1F5A5F163
:1009B000800501FB12041B3C02D56442012000E0CB
:1009C0000020DFF890A080460027FA44AAF1BE0A72
:1009D0000DE0E00709D03246684607EB47010AEB15
:1009E000810100F032FB8DE8070064107F1C002CB1
:1009F000EFD1184F7F44AC3F18E0E80714D007EB65
:100A000004100DF1180A90E80E008AE80E00C06884
:100A1000F04201D198190890324606A903A800F0C7
:100A200014FB03AB83E807006D10641C002DE4D1B8
:100A300032466946B8F1000F03A802D000F0F1FA7F
:100A400001E000F002FBC9E90001C9F808200AB082
:100A5000BDE8F087302D0000007B00F0800070477B
:100A600000487047B40300207546FFF7F9FFAE4613
:100A700005006946534620F00700854618B020B5AA
:100A8000FFF7A2FBBDE820404FF000064FF0000743
:100A90004FF000084FF0000B21F00701AC46ACE826
:100AA000C009ACE8C009ACE8C009ACE8C0098D4693
:100AB00070470446AFF300802046FFF771FB00004B
:100AC0004FF0013C50F8042B51F8043B9A4221D1DD
:100AD000A2EB0C03934313EACC1317D150F8042B69
:100AE00051F8043B9A4215D1A2EB0C03934313EA4D
:100AF000CC130BD150F8042B51F8043B9A4209D186
:100B0000A2EB0C03934313EACC13DBD04FF00000AD
:100B1000704700BFD01A01BAB1FA81F101F0180193
:100B200022FA01F0CB40C1F12001DBB2C0B2C01A01
:100B30002CFA01F3D11A914311EAC311E6D170479F
:100B40005FEA400C08BF91F0000F4FEA8C234FEA98
:100B5000C12243EA51514FEA1C5018BF00F5F04042
:100B60004FEA300018BF41F000415FEA6C5C00F0D2
:100B70002980BCF1FF3F08BF40F080407047130C54
:100B800006BF12044FF0100C4FF0000C130E04BF00
:100B900012020CF1080C130F04BF12010CF1040C2B
:100BA000930F04BF92000CF1020CD30F04BF52004C
:100BB0000CF1010C11464FF00002A0F11F00A0EB58
:100BC0000C00704711F0004F08BF704731F0004132
:100BD0003FF4D5AF0B0C06BF09044FF0100C4FF0DB
:100BE000000C0B0E04BF09020CF1080C0B0F04BF24
:100BF00009010CF1040C8B0F04BF89000CF1020CED
:100C0000CB0F04BF49000CF1010CCCF12003A0EB89
:100C10000C0022FA03F302FA0CF241EA030100F19C
:100C20000100704720F07F4C80EA030023F07F47EB
:100C3000ACEB070303F57C5300F0004003F1FF0326
:100C40002DE980494FEA154B09B44FEA144325EAD0
:100C50000B4E24EA03480FF2042606EB132749083B
:100C60003E785FEA320203FB0667C7F5000707FB21
:100C700006F64FEA54374FEAD64606F1020607FB5E
:100C8000066CCCF1005C4FEA1C472CEA074C07FBD2
:100C900006F40CFB06F504EB15464FEA961634BF36
:100CA00000204FF000404FEAD13706FB07FC4FEA27
:100CB0001C4C0CFB0BF7D21B03FB0CF761EB070181
:100CC0000CFB0EF7B0EB074072EB17420CFB08F77A
:100CD00034BFA2EB0742B2EB074261EB17414FEA88
:100CE0000C444FEA910706FB07FC4FEA1C4C0CFB37
:100CF0000BF7B0EBC74072EB573203FB0CF734BF76
:100D0000A2EBC742B2EBC74261EB57310CFB0EF7C7
:100D1000B0EBC70072EB57720CFB08F734BFA2EBC5
:100D2000C702B2EBC70261EB5771039F4FEA8161C3
:100D300041EA921104EBCC044FEAD1374FEA8262C8
:100D400006FB07FC42EA90124FEA80604FEA1C4C17
:100D50000CFB0BF7D21B03FB0CF761EB07010CFB41
:100D60000EF7B0EB074072EB17420CFB08F734BFED
:100D7000A2EB0742B2EB074261EB17414FEA8C55F9
:100D80004FEA910704EB9C2406FB07FC4FEA1C4C3E
:100D90000CFB0BF7B0EBC74072EB573203FB0CF7C1
:100DA00034BFA2EBC742B2EBC74261EB57310CFB39
:100DB0000EF7B0EBC70072EB57720CFB08F734BFAD
:100DC000A2EBC702B2EBC70261EB577115EB4C25E2
:100DD0004FEA816141EA92114FEA82624FEAD137CC
:100DE00042EA901206FB07FC44F100044FEA8060DF
:100DF0004FEA1C4C0CFB0BF7D21B03FB0CF761EB0F
:100E000007010CFB0EF7B0EB074072EB17420CFB2F
:100E100008F734BFA2EB0742B2EB074261EB174180
:100E200015EB1C154FEA813141EA92414FEA8232BB
:100E300042EA90424FEA80304FEA0C7644F10004D7
:100E400048EA03434EEA0B484FF0000EB2EB080CA1
:100E500071EB030724BF624639464EEB0E0E4FF08E
:100E6000000B0018524149414BEB0B0BB2EB080C45
:100E700071EB03077BF1000B24BF624639464EEB52
:100E80000E0E4FF0000B0018524149414BEB0B0B7B
:100E9000B2EB080C71EB03077BF1000B24BF624639
:100EA00039464EEB0E0E51EA020718BF46F0010616
:100EB00016EB0E7655F1000254F1000103D5BDE8A2
:100EC0008901BDE80088BDE88901BDE80048B61980
:100ED000524141EB0101A3F10103704780807F7E05
:100EE0007D7C7B7A797877767675747372717170A0
:100EF0006F6E6E6D6C6C6B6A6A6968686766666552
:100F00006464636362616160605F5F5E5E5D5D5CDF
:100F10005C5B5B5A5A595958585757565655555550
:100F20005454535352525251515050504F4F4F4EB0
:100F30004E4D4D4D4C4C4C4B4B4B4A4A4A494949FE
:100F40004848484747474746464645454544444440
:100F5000444343434342424242414141002B26D451
:100F6000770021D01CB54FEA370703B44FF01000CB
:100F70004FF010014FF000000FBCBDE810400BF126
:100F8000010BBBF1010F08BF5FEA170722BF12F187
:100F9000010211F101014FF0004143F1000300F0A3
:100FA000004043EA00007047F9D35708DAE746EA01
:100FB000064613F1400F4FEA16461FDD13F1200FCE
:100FC000DFBF16430A46002120335B42C8D0C3F17D
:100FD000200746EA064602FA07F74FEA164646EAAF
:100FE0000706C3F1200722FA03F201FA07F721FAF4
:100FF00003F14FF0000342EA0702B1E746EA0206B6
:1010000046EA06464FEA164646EA0106BCBF46EAED
:101010000646360C4FF000034FF000024FF000017F
:101020009EE72DE9C048934630B491E8380007C8E0
:1010300031EA400C48BF34EA430C03D5FFF7F2FD18
:10104000FFF78CFFF0BCBDE800882DE9C04893464F
:1010500030B491E8380007C810F0804F08BF13F093
:10106000804F03D100F005F8FFF778FFF0BCBDE832
:10107000008820F07F4780EA030023F07F4C07EBD5
:101080000C03A3F57C5300F00040A3F1FE0392F0A3
:10109000000F00F0B38095F0000F00F077802DE98D
:1010A00001494FEA11404FEA144621EA004800FB8B
:1010B00006FC24EA064708FB06F607FB08F800FBD7
:1010C00007F718EB06484CEB164C4FEA124B18EB9F
:1010D00007484FEA15464CEB174022EA0B4E0BFB34
:1010E00006FC25EA06470EFB06F607FB0EFE0BFB89
:1010F00007F71EEB064E4CEB164C4FF000061EEBAE
:10110000074E4CEB174B18EB0B0840F1000018EBA7
:101110000E0B58EB000840F100008F1A4FF0000151
:101120003CBFC943661B14BFB5EB040C00213CBF98
:10113000C943F61B4FEA17444EEA8E0E27EA0445D0
:101140004FEA1C4704FB07622CEA074C05FB07F734
:101150000CFB05F604FB0CFC16EB074642EB1742B2
:1011600016EB0C4642EB1C421BEB060658EB020248
:10117000414146EA9E0601D5BDE80189B6195241B2
:1011800041EB0101A3F10103BDE801894FEA1445D8
:101190004FEA114724EA054621EA074C05FB07F40C
:1011A00006FB07F70CFB06F105FB0CFC11EB0741F6
:1011B00044EB17444FEA124711EB0C4144EB1C443B
:1011C00022EA074C05FB07F206FB07F70CFB06F6C5
:1011D00005FB0CFC16EB074642EB174216EB0C46E0
:1011E00042EB1C456A1854F1000148BF7047B6191C
:1011F000524141EB0101A3F10103704795F0000F4B
:1012000037D04FEA11424FEA144721EA024624EA56
:10121000074C02FB07F106FB07F70CFB06F402FB89
:101220000CFC14EB074441EB17414FEA154714EB54
:101230000C4441EB1C4125EA074C02FB07F506FB79
:1012400007F70CFB06F602FB0CFC16EB074645EB1A
:10125000174516EB0C4645EB1C42121951F10001E3
:1012600048BF7047B619524141EB0101A3F1010398
:1012700070474FEA14454FEA114724EA054621EA30
:10128000074C05FB07F106FB07F70CFB06F24FF0D6
:10129000000605FB0CFC12EB074241EB174112EB79
:1012A0000C4251EB1C4148BF7047921841EB0101C1
:1012B000A3F10103704700002DE9F04F87B04FF014
:1012C000000A44F6F44B584601F0FDFD80463D4AC5
:1012D0003D4B01F00BFE064600223C4B01F034FD75
:1012E000CDE902010AF57A7001F0D6FD0646384ACA
:1012F000384B01F0FBFDCDE90001DDE9022301F0EF
:10130000F5FD0446344A354B01F0F0FDCDE904010A
:1013100001F0E8FC32490860584601F0D4FD064669
:10132000284A294B01F0E2FD04460022274B01F038
:101330000BFDCDE902010AF57A7001F0ADFD04461E
:10134000234A244B01F0D2FDCDE90001DDE902235F
:1013500001F0CCFD234A244BCDE9040101F0C6FD88
:10136000804601F0BFFC21490860584601F0ABFD02
:101370000646144A144B01F0B9FD80460022134B77
:1013800001F0E2FCCDE902010AF57A7001F084FD7A
:1013900006460F4A0F4B01F0A9FDCDE90001DDE93A
:1013A000022301F0A3FD0446114A124B01F09EFDF9
:1013B000CDE9040101F096FC0F49086007B0BDE8D3
:1013C000F08F00007B14AE47E17A843F0000594063
:1013D000F168E388B5F8E43E2D431CEBE2361A3F92
:1013E000640000209D2ADF3312A1513F68000020D5
:1013F00092CB7F48BF7D4D3F6C00002001460846E0
:101400001F2900DD002000F001021AB101221A4B51
:101410001A6002E00022184B1A6000F002021AB1B2
:101420000122164B1A6002E00022144B1A6000F0F1
:10143000040222B10122114B1B1F1A6003E000229B
:101440000E4B1B1F1A6000F0080222B101220B4B49
:10145000083B1A6003E00022084B083B1A6000F0CA
:10146000100222B10122054B0C3B1A6003E000225E
:10147000024B0C3B1A607047A0012142A40122429A
:1014800000BFFEE72DE9F84F83468A46BAF1010F07
:1014900009D0BAF1020F1FD0BAF1030F34D0BAF15C
:1014A000040F60D149E04FF08141584601F066FFDA
:1014B000009001F003FF074600222E4B01F044FC90
:1014C000054601F00FFC8346584601F023FF044611
:1014D000FA2004FB00F947E02749584601F04EFF87
:1014E000009001F0EBFE05460022224B01F02CFC9F
:1014F000074601F0F7FB8346584601F00BFF044610
:10150000642004FB00F92FE01C49584601F036FF27
:10151000009001F0D3FE07460022164B01F014FCA8
:10152000054601F0DFFB8346584601F0F3FE044612
:1015300004EB84004FEA400916E01149584601F0D7
:101540001DFF009001F0BAFE05460022094B01F094
:10155000FBFB074601F0C6FB8346584601F0DAFE66
:101560000446A14600E000BF00BF1FFA89F0BDE8B5
:10157000F88F00000000E03F000020410000C8425A
:1015800000007A447047000010B500244FF4004179
:101590001D4800F017FA08B144F001044FF48061CF
:1015A0001A4800F00FFA08B144F002044FF4006149
:1015B000164800F007FA08B144F004044FF48051D3
:1015C000124800F0FFF908B144F008040421104863
:1015D00000F0F8F908B144F0100408210D4800F0BB
:1015E000F1F908B144F0200410210A4800F0EAF9AA
:1015F00008B144F040044021064800F0E3F908B186
:1016000044F08004204610BD000801400010014055
:1016100000140140000C014070B524480078FF28F8
:1016200010D04FF40051224800F0CCF91F4909783E
:10163000884200D170BD1D48007808B9012407E038
:10164000002405E04FF40051194800F0BBF90446AE
:1016500000250CE00A2000F0BBFF4FF400511448B5
:1016600000F0B0F9A04200D0E4E7681CC5B2052D37
:10167000F0DB10480088142802DB0FA0FEF7B8FD4D
:101680000C490988C1EB01110F4A02EB410002220B
:101690000C2100F06DFB07480088401C05490880BC
:1016A0004FF4005000F04AF800BFC3E75C00002090
:1016B000000C01405A000020657272206F7665723E
:1016C000666C6F770D0A0000740000201FB54FF4A0
:1016D0000050ADF8000004208DF80300694616485C
:1016E00000F09CF80121082000F080FA0121084652
:1016F00000F07CFA0D21012000F070F84FF400504A
:10170000029000208DF80C000C208DF80D000120B7
:101710008DF80E0002A800F017F828208DF80400BC
:1017200003208DF8050001208DF806008DF80700D4
:1017300001A800F007FA1FBD000C01400149086034
:101740007047000014040140002123498279002AD7
:101750003AD00A46126803689A430B461A600A1D7B
:10176000126803689A430B1D1A60027911440A68D3
:1017700003681A430A60184A0832126803689A43D9
:10178000154B08331A601A1D126803689A43124BEE
:101790000C331A604279102A0ED11A1F126803689E
:1017A0001A430D4B08331A601A1D126803681A4356
:1017B000094B0C331A600DE00749427911440A685D
:1017C00003681A430A6005E0027911440A68036855
:1017D0009A430A60704700000004014030B50022BF
:1017E0008B071C0F0F2303FA04F20B4B8C1053F8DA
:1017F00024309343084C8D1044F8253023468C1038
:1018000053F824308C07240F00FA04F42343024CCD
:101810008D1044F8253030BD080001402DE9F0411D
:10182000024600250026002000230024002791F80E
:1018300003C00CF00F0591F803C00CF0100CBCF1C4
:10184000000F03D091F802C04CEA050591F800C0E2
:10185000BCF1000F31D0146800202BE04FF0010CD8
:101860000CFA00F3B1F800C00CEA03069E4220D146
:1018700083004FF00F0C0CFA03F7BC4305FA03FC8E
:101880004CEA040491F803C0BCF1280F06D14FF0D4
:10189000010C0CFA00FCC2F814C00AE091F803C075
:1018A000BCF1480F05D14FF0010C0CFA00FCC2F856
:1018B00010C0401C0828D1D31460B1F800C0BCF19E
:1018C000FF0F34DD546800202EE000F1080C4FF0CB
:1018D000010808FA0CF3B1F800C00CEA03069E42B6
:1018E00021D183004FF00F0C0CFA03F7BC4305FA2B
:1018F00003FC4CEA040491F803C0BCF1280F05D1A5
:1019000000F1080C08FA0CF8C2F8148091F803C032
:10191000BCF1480F07D100F1080C4FF0010808FA9C
:101920000CF8C2F81080401C0828CED35460BDE8E3
:10193000F0810000F0B50A460023002400210025B4
:1019400000F00046B6F1004F02D11D4EF16901E0F2
:101950001B4E7168C0F3034583B200F44016B6F520
:10196000401F08D121F07061154E766826F0706630
:10197000134F7E6012E000F48016B6F5801F06D18A
:10198000032606FA05F4A14341F0706106E0460D16
:10199000360103FA06F6B14341F0706122B1460DFB
:1019A000360103FA06F6314300F00046B6F1004F67
:1019B00002D1034EF16101E0014E7160F0BD000003
:1019C000000001400246002093680B400BB101204B
:1019D00000E00020704701617047000010B502462A
:1019E0000020002106E0535C044CE45C0444E0B2B7
:1019F0004C1CE1B20C29F6DB10BD000018350008C4
:101A000000BFFEE700F001020A70C0F340024A7016
:101A1000C0F380028A70C0F3C002CA70C0F3001223
:101A20000A71C0F340124A71C0F380128A71C20970
:101A3000CA71704730B5002372B616480088401E40
:101A4000144C208020460088142801DBFF2030BD84
:101A500010480088D0B1002114E000220EE0481C9C
:101A6000C0EB00100C4C04EB4000805CC1EB011497
:101A7000094D05EB4404A054501CC2B21E2AEEDBF3
:101A8000481CC1B2034800888142E6DB62B61846B2
:101A9000DDE700005A0000207400002008B5012195
:101AA000102000F0A3F80120ADF8000010208DF800
:101AB000030003208DF8020069460948FFF7AEFED7
:101AC00001210748FFF787FF0220ADF800006946B3
:101AD0000348FFF7A3FE02210148FFF77CFF08BD82
:101AE0000010014070B51048027810480178104885
:101AF00000F03EF900200F49087000240AE00C486D
:101B0000055D0D48405D0B49097808440949087096
:101B1000601CC4B20C2CF2DB0648007808B9012026
:101B200070BD0020FCE70000600000206100002084
:101B300094030020620000201835000800BFFEE773
:101B40007047000070B5002100230F22C47804B351
:101B5000154C246804F4E064C4F5E064210AC1F182
:101B60000403CA40447804FA03F184781440214302
:101B700009010E4C0678A155047804F01F050124D4
:101B8000AC4005786D11AD0005F1E025C5F80041C8
:101B900009E0047804F01F050124AC40044D0678E8
:101BA000761145F8264070BD0CED00E000E400E041
:101BB00080E100E002490143024A116070470000E1
:101BC0000000FA050CED00E07047000029B1064A5C
:101BD000D2690243044BDA6104E0034AD2698243CA
:101BE000014BDA61704700000010024029B1064A3B
:101BF00092690243044B9A6104E0034A926982436A
:101C0000014B9A61704700000010024030B500217E
:101C10000022002400232D4D6D6805F00C0121B138
:101C2000042905D0082923D105E0294D056022E0CB
:101C3000274D05601FE0254D6D6805F47012234D9A
:101C40006D6805F48034022505EB92421CB9214DE4
:101C5000554305600BE01D4D6D6805F400351DB161
:101C60001C4D5543056002E0194D5543056002E0E7
:101C7000174D056000BF00BF144D6D6805F0F00101
:101C80000909154D6B5C0568DD4045600F4D6D68B9
:101C900005F4E061090A104D6B5C4568DD40856024
:101CA0000A4D6D6805F46051C90A0B4D6B5C4568BF
:101CB000DD40C560054D6D6805F44041890B074D59
:101CC0006B5CC568B5FBF3F5056130BD00100240E3
:101CD00000127A0000093D00460000205600002056
:101CE00008B501213C20FFF781FF4FF48070ADF86B
:101CF000000010208DF8030069461848FFF78EFD9C
:101D00004FF47070ADF8000069461548FFF786FD86
:101D10004FF40040ADF8000004208DF80300694640
:101D20000E48FFF77BFD4FF4E050ADF80000694628
:101D30000B48FFF773FD0420ADF800006946094821
:101D4000FFF76CFD01210848FFF7F4FD5820ADF8BE
:101D5000000069460548FFF761FD08BD0008014025
:101D6000001001400014014000023000000C01404E
:101D70002DE9F04106460C4617460020124908603E
:101D8000192C02DBFF20BDE8F081002507E0284682
:101D9000FFF734FBFFF7F8FB7055681CC5B2A5428E
:101DA000F5DB082F05DCFF203841C04300F0FF08B9
:101DB00001E0FF20E7E7601E305C00EA0800611EDA
:101DC00070540020DFE700009801224270470000B5
:101DD00001480078704700005A00002010B500F05C
:101DE00001F810BD0CB50020019000903348006848
:101DF00040F480303149086000BF3048006800F48A
:101E0000003000900198401C0190009818B901988A
:101E1000B0F5A06FF1D12948006800F4003010B18E
:101E20000120009001E0002000900098012843D19B
:101E30002348006840F01000214908600846006807
:101E400020F0030008600846006840F002000860C7
:101E50001A48406819494860084640684860084682
:101E6000406840F4806048600846406820F47C1078
:101E700048600846406840F4E8104860084600683A
:101E800040F08070086000BF0C48006800F00070EF
:101E90000028F9D00948406820F00300074948604D
:101EA0000846406840F00200486000BF03484068B0
:101EB00000F00C000828F9D10CBD00000010024011
:101EC00000200240042808D14FF0E021096941F0C8
:101ED00004014FF0E022116107E04FF0E0210969B1
:101EE00021F004014FF0E0221161704770470000BB
:101EF00010B51348006840F0010011490860084619
:101F00004068104908400E494860084600680E497C
:101F100008400B4908600846006820F480200860EB
:101F20000846406820F4FE0048604FF41F008860B7
:101F3000FFF754FF4FF000600449086010BD000037
:101F4000001002400000FFF8FFFFF6FE08ED00E081
:101F500010B50121054800F04AF828B101210348D5
:101F600000F036F800F01CFA10BD0000000400403C
:101F70007FB505460C4601210220FFF727FEADF88C
:101F80000850ADF804400020ADF80A00ADF8060096
:101F900001A90E4800F046F8012211460B4800F056
:101FA00037F81D208DF8000000208DF80100032077
:101FB0008DF8020001208DF803006846FFF7C2FD8E
:101FC0000021024800F007F87FBD00000004004037
:101FD000CA430282704721B1028842F001020280A6
:101FE00004E002884FF6FE731A400280704730B555
:101FF0000246002000230024158A05EA0103958982
:1020000005EA010413B10CB1012000E0002030BD4D
:102010001AB183890B43838102E083898B438381D7
:1020200070470000002202881D4B98420ED01D4BC5
:1020300098420BD0B0F1804F08D01B4B984205D08E
:102040001A4B984202D01A4B984204D14FF68F7324
:102050001A404B881A43174B984207D0164B9842A8
:1020600004D04FF6FF431A40CB881A4302808B8876
:1020700083850B8803850A4B98420BD0094B984205
:1020800008D00E4B984205D00D4B984202D00D4B14
:10209000984201D10B7A03860123838270470000A6
:1020A000002C0140003401400004004000080040C2
:1020B000000C0040001000400014004000400140AF
:1020C000004401400048014010B50548007830B98F
:1020D00001210448FFF77FFF01200149087010BD6E
:1020E000700000200004004010B506480078012868
:1020F00006D100210448FFF76EFF00200149087057
:1021000010BD0000700000200004004010B540F237
:1021100025511D4800F082F810B31B4800F03AF931
:10212000C4B21A48008800F40040C8B917480088B3
:1021300000F4804060B10A2C03D0002013490880CD
:1021400020E01248008840F400401049088019E05F
:102150000D2C06D10D48008840F480400B490880C2
:1021600010E00A480088C0F30D0009490C540748E4
:102170000088401C0549088008460088C72801DD02
:102180000020088010BD00000038014044000020FD
:10219000CC02002010B540F22551114800F03EF865
:1021A000E0B1FFF7A1FFFFF78FFF0D4800F0F2F855
:1021B000C4B20C480088C0F30D00C8280BDA0948E7
:1021C0000088C0F30D0008490C5406480088401CE4
:1021D0000449088002E005A0FEF70AF810BD0000DF
:1021E0000044004044000020CC02002020B4EDCE8A
:1021F000F320BEAFB8E620553220D2E7B3F60D0A81
:102200000000000021B1828942F40052828104E082
:1022100082894DF6FF731A408281704770B502467D
:10222000002400230025002040F66A16B14200D1A8
:1022300000BFC1F3421501F01F03012606FA03F3A4
:10224000012D02D19689334006E0022D02D1168A73
:10225000334001E0968A33400C12012606FA04F45A
:102260001688344013B10CB1012000E0002070BD8D
:10227000F0B50346002400260025002040F66A172A
:10228000B94200D100BF1846C1F3421401F01F0645
:10229000012707FA06F5012C01D10C3004E0022CCD
:1022A00001D1103000E014301AB107682F430760E5
:1022B00002E00768AF430760F0BD00002DE9F0477A
:1022C00086B005460E460024A24600BFA146002760
:1022D000B08900B100BF2F462C8A4CF6FF70044035
:1022E000F08804432C82AC894EF6F3100440B08889
:1022F00031890843718908430443AC81AC8A4FF6A5
:10230000FF400440B0890443AC8201A8FFF77EFC83
:102310001F48874202D1DDF810A001E0DDF80CA0D3
:10232000A88900F4004040B10AEBCA0000EB0A1093
:1023300031684900B0FBF1F807E00AEBCA0000EB96
:102340000A1031688900B0FBF1F86420B8FBF0F0A6
:1023500004012009642101FB1089A88900F40040D0
:1023600040B1322000EBC900B0FBF1F000F00700F3
:10237000044308E0322000EB09106421B0FBF1F0C7
:1023800000F00F0004432C8106B0BDE8F087000088
:102390000038014001468888C0F3080070470000FB
:1023A0000348008840F4004001490880704700005D
:1023B000440000200448008800F4004010B10020D0
:1023C00001490880704700004400002010B586B025
:1023D0000446012144F20400FFF708FC4FF40070AA
:1023E000ADF8140003208DF8160018208DF81700A2
:1023F00005A91C48FFF712FA4FF48060ADF81400ED
:1024000004208DF8170005A91648FFF707FA2520C4
:102410008DF8000003208DF801008DF802000120E6
:102420008DF803006846FFF78DFB01940020ADF89E
:102430000800ADF80A00ADF80C00ADF810000C2053
:10244000ADF80E0001A90848FFF738FF012240F25D
:1024500025510548FFF70CFF01210348FFF7D2FE85
:1024600006B010BD000801400038014010B586B02C
:10247000044601212248FFF7A9FB0420ADF814000F
:1024800003208DF8160018208DF8170005A91D48A7
:10249000FFF7C4F90820ADF8140004208DF81700E8
:1024A00005A91848FFF7BAF926208DF80000032087
:1024B0008DF8010002208DF8020001208DF8030044
:1024C0006846FFF73FFB01940020ADF80800ADF827
:1024D0000A00ADF80C00ADF810000C20ADF80E00AD
:1024E00001A90948FFF7EAFE012240F225510648FA
:1024F000FFF7BEFE01210448FFF784FE06B010BDC1
:1025000004000200000801400044004000BFFEE754
:10251000490050EAC12018BF04204A0D18BF40F0FE
:10252000010040F2FF72B2EB515F08BF40F00200C1
:10253000012808BF05207047014600BF7047000012
:1025400010B56FF00400FFF7BDFC0A4800680A49A7
:10255000B0FBF1F0094908700846007800EB400133
:10256000C1EBC0104FF6FF7101EAC00004490880BA
:1025700010BD00002800002000127A003C0000205E
:102580003E0000200146114A12884A434FF0E023E2
:102590005A6100229A611A46126942F001021A61D8
:1025A00000BF4FF0E022106900F001021AB100F400
:1025B0008032002AF5D04FF0E022126922F00102A9
:1025C0004FF0E0231A6100229A6170473E0000201C
:1025D0000146114A12784A434FF0E0235A61002223
:1025E0009A611A46126942F001021A6100BF4FF067
:1025F000E022106900F001021AB100F48032002AD2
:10260000F5D04FF0E022126922F001024FF0E023F2
:102610001A6100229A6170473C00002000BF054A01
:10262000128802F04002002AF9D0C2B2014B1B1DF1
:102630001A807047003801404FF4A060FFF7BAFAE3
:102640004FF41650FFF7C2FE4FF41650FFF70EFF7F
:1026500041F61F4140F2F310FFF78AFCFFF770FFCD
:10266000FFF734F8FFF71AFAFFF73AFB012080F37F
:10267000108800BFFEF720FE0020A8490860A8A02F
:10268000FDF7B6FD4FF4FA70FFF77CFFA9A0FDF748
:10269000AFFD4FF47A70FFF775FF00F0F9F94FF4D2
:1026A0007A70FFF76FFF18E0A6A0FDF7A1FD00F01C
:1026B000DDFA4FF47A70FFF765FFA748007820B184
:1026C000A5480078401EA4490870A348007820B9A6
:1026D0000320A149087000F085FAFFF703FA0028EB
:1026E000E2D09EA0FDF784FD01208C49086000F037
:1026F000CFF94FF47A70FFF745FF002080F3108880
:1027000000BF0AE1FFF764FB00287DD0FFF792F9D4
:10271000FF2806D195A0FDF76BFD4FF4FA70FFF787
:1027200031FF0020974908709748FFF757F99549FE
:10273000087008460078002867D1784908609348F7
:102740000078012860D100209049087090A0FDF722
:102750004FFD9548018895A0FDF74AFD92480088F5
:102760000A2851DB0220964908708F48008800F043
:10277000F1FD054693480168284600F0FFFD044638
:102780008F4801782046FEF77DFE8F4908600120C2
:102790008B4908708448008800F0DCFD05468B48B2
:1027A0000168284600F0EAFD044685480178204685
:1027B000FEF768FE864908600220814908707A4861
:1027C000008800F0C7FD054682480168284600F0F1
:1027D000D5FD04467A4801782046FEF753FE7E492F
:1027E00008600020704908807748006858B9784828
:1027F000006840B97848006828B978A0FDF7F8FC6F
:102800006420FFF7BFFE01E085E078E06E480068D5
:102810007849096888420BD36D4800687549096892
:10282000884205D36C48006872490968884205D21D
:1028300071A0FDF7DDFC6420FFF7A4FE624801688B
:1028400073A0FDF7D5FC6048006800F083FD80466A
:1028500000F034FD0646734A734B00F047FB044614
:1028600000F040FA714908600846006800F026FD53
:10287000044622460B466EA0FDF7BAFC5448016898
:102880006FA0FDF7B5FC5248006800F063FD80467C
:1028900000F014FD0646634A634B00F027FB044634
:1028A00000F020FA6B4908600846006800F006FD59
:1028B000044622460B4668A0FDF79AFC464801688C
:1028C00069A0FDF795FC4448006800F043FD804690
:1028D00000F0F4FC0646534A534B00F007FB044655
:1028E00000F000FA654908600846006800F0E6FC60
:1028F000044622460B4662A0FDF77AFC0BE001205D
:102900000649086021490870274800881D49097850
:10291000084425490880FFF74DFDF3E68001224277
:10292000696E697420737563636573732E2E2E0D43
:102930000A0000005363616E20496E69742E2E2ECA
:102940000D0A00004D656173757265204E6F205A47
:1029500065726F0D0A000000180000205363616E5D
:1029600020737563636573730D0A0000436F6E67B0
:10297000657374696F6E206F766572666C6F772110
:10298000210D0A000000002074000020010000203A
:102990000D0A202A2A2A5368656574206F766572AD
:1029A0002A2A2A0D0A0000000200002061636375D4
:1029B0005F61726561203A2025640D0A0000000005
:1029C00010000020640000200400002068000020A7
:1029D000080000206C0000200C00002063756C745F
:1029E0007572652061726561206973203021210D47
:1029F0000A0000001400002063756C747572652075
:102A000061726561206973206D696E21210D0A0074
:102A10005368656574417265615F6D323A20256463
:102A20000D0A0000FCA9F1D24D62503F1C000020AD
:102A300020C6BDB7BDC3D7203A202566200D0A00A9
:102A40005368656574417265615F79633A202564F6
:102A50000D0A00002400002020D3A2B3DF20202094
:102A60003A202566200D0A00536865657441726539
:102A7000615F73633A2025640D0A00002000002086
:102A800020CAD0B3DF2020203A202566200D0A007E
:102A900010B588B0294802780C212948FFF768F959
:102AA00028A0FDF7A5FB002440E0254911F81400FB
:102AB00006A9FEF7A7FF21462EA0FDF799FB9DF87A
:102AC0001F009DF81E109DF81D209DF81C30CDE9BB
:102AD0000132CDE903109DF81B0000909DF81A30DB
:102AE0009DF819209DF8181024A0FDF781FB1449CA
:102AF000C87806A9FEF786FF9DF81F009DF81E10F6
:102B00009DF81D209DF81C30CDE90132CDE9031060
:102B10009DF81B0000909DF81A309DF819209DF833
:102B200018101DA0FDF764FB601CC4B2062CBCDBB2
:102B300020A0FDF75DFB08B010BD00006000002084
:102B400094030020200D0A2A2A2A2A2A2A2A2A2A1D
:102B50002A2A2A2A2A2A5343414E20544553542ACA
:102B60002A2A2A2A2A2A2A2A2A2A2A2A2A2A2A2AC5
:102B70000D0A00004C25643A000000002025642066
:102B800025642025642025642025642025642025D3
:102B90006420256409000000202564202564202588
:102BA0006420256420256420256420256420256474
:102BB0000D0A0000202A2A2A2A2A2A2A2A2A2A2A10
:102BC0002A2A2A2A2A2A2A454E442A2A2A2A2A2A0C
:102BD0002A2A2A2A2A2A2A2A2A2A2A2A2A2A0D0A92
:102BE0000000000010B588B0184802780C21184881
:102BF000FFF7BEF817A0FDF7FBFA00241EE014490A
:102C0000085D06A9FEF7FEFE9DF818009DF8191054
:102C10009DF81A209DF81B30CDE90132CDE9031053
:102C20009DF81C0000909DF81D309DF81E209DF819
:102C30001F1009A0FDF7DCFA601CC4B20C2CDEDB0F
:102C400004A0FDF7D5FA08B010BD00006000002018
:102C5000940300200D0A0000256425642564256482
:102C600020256425642564256420000010B509A092
:102C7000FDF7BEFA002406E00B48015D0BA0FDF74E
:102C8000B7FA601CC4B20C2CF6DB0AA0FDF7B0FA50
:102C900010BD00004C6F63616C5363616E506F69CF
:102CA0006E743A200000000094030020205B255839
:102CB0005D0000000D0A000010B500290AD0087858
:102CC000002807D005487844FDF7FAFE002801D017
:102CD000002010BD0248784410BD00002E0A0000FC
:102CE000260A000021F00042A2F16052B2F5801FD6
:102CF00001F0004328BFD2F17F6C0BD95FEA001CC2
:102D000043EAC20242EB507018BF704728BF20F060
:102D100001007047B2F5801FBCBF184670474FEAEC
:102D2000410C1CF5001F02D2084600F0EEBB70B546
:102D300000F086F900000089FFF7F6BF4FF0004071
:102D4000A0F580007047000010B591EA030F48BF5E
:102D500083F0004300F1D081841A71EB030C05D29B
:102D6000121943EB0C03001B61EB0C01DFF824E1AB
:102D70004FEA1154A4EB135C1EEA430F18BF9EEAFE
:102D8000445F73D023EA0E03DCF1200E21EA0451E4
:102D900043F4801332D322FA0CFE10EB0E0023FA18
:102DA0000CFE41EB0E01CCF1200E03FA0EFE10EBEF
:102DB0000E0051F10001B1F5801FCCF1200E32D28E
:102DC00001EB045112FA0EF2BDE8104058BF7047F3
:102DD000401C38BF5FEA420218BF7047002814BF8A
:102DE00020F0010041F100014FEA410313F5001FFB
:102DF00038BF7047A1F1C04100F070B9012A43EB20
:102E00000302ACF1200CDCF11F0E32BF4FF0000EBC
:102E100023FA0CF310EB030041EB0451B4EB115F08
:102E2000D0D0A1EB045101F5801149085FEA3000D0
:102E300001EB04510ED350F1000038BF12FA0EFE20
:102E400008D1BDE81040C9E7401C38BF5FEA420224
:102E5000CAD1C3E7BDE810404FEA410313F5001F94
:102E600038BF7047A1F1C04100F038B99EEA445F15
:102E700008D011EA5E0FBDE8104004BF01F0004128
:102E800000207047BDE8104070B500F0D9F800BFD1
:102E900064FBBE3E0000E0FF10F0004248BF40422D
:102EA000B0FA80F310FA03F10AD0C3F11D0303F561
:102EB00080634FEA415002EB035202EBD12170478D
:102EC0004FF000007047B0FA80F310FA03F10AD017
:102ED000C3F11D0303F580634FEA41504FEA0352EB
:102EE00002EBD12170474FF000007047DFF848C176
:102EF00070B51CEA111E1EBF1CEA13159EEA0C0FCA
:102F000095EA0C0F00F06F8081EA030423EA4C136A
:102F10004EEAD47E21EA4C1141F4801143F480132F
:102F2000AE44A1FB024CA0FB0365AEF17F7E3619D7
:102F300055EB0C05A1FB034C4CF10003A0FB021C5C
:102F400016EB0C06654153F10003094218BF46F029
:102F5000010613F4007F0BD14FEA03314FEA05302D
:102F6000340341EA155140EA16506FF003020AE0BB
:102F70004FEAC3214FEAC520F40241EA555140EA25
:102F800056506FF0020202EB2E4201EB025585EA29
:102F9000CE710AD05FEA440C18BF24F0004450F10F
:102FA000000041F1000120EAD47040F2FE7C62454D
:102FB00000D270BDA84214BF4FF080444FF040448F
:102FC000002E08BF0024BEF1806FA8BFA1F1C04150
:102FD000BDE8704080F282804FF0000001F1C041F6
:102FE00001F0004170479EEA0C0F0CEA131518BF60
:102FF00095EA0C0F06D04FF0000081EA030E0EF0A8
:10300000004170BD00F01CF88900013E00F007B8D7
:1030100000F009B84FEA430C5FEA5C5C08D081EA33
:10302000030100F05BB84FEA410C5FEA5C5CF6D14B
:103030004FF00000014970470000FF070000F87FD3
:103040000EF1020E2EF0030E5EF8046B364205D42C
:10305000012A43EB030515F5001F12D8012841EBA7
:10306000010C1CF5001F0CD80ED14FEAD17C15F5D0
:10307000001F0CEB4C0C0CF1020C08BF4CEBD37C8A
:1030800004E04FF0080C01E04FEAD37C0CEB4C0558
:1030900026FA05F606F00706B6F1040C06D20EEB8A
:1030A000860CBDE870404CF0010C6047DFE80CF086
:1030B000090B02024FF000414FF00000A1F5002182
:1030C00070BD19461046012851EB010418BFD4F514
:1030D000001484BF002001F0004170BD0808A0F575
:1030E00000114FEA3101704710B591EA030F48BF54
:1030F00083F000433FF530AE841A71EB030C07D226
:1031000012198CF0004C43EB0C03001B61EB0C011B
:10311000DFF8A4E14FEA1154A4EB135C1EEA430F5D
:1031200018BF9EEA445F00F0B08023EA6E0352426B
:1031300021EA0451C3EB6E0338BF5B1EDCF1200EA5
:1031400025D322FA0CFE10EB0E0043FA0CFE41EBE5
:103150000E01CCF1200E03FA0EFE10EB0E0051F121
:103160000001CCF1200E29D412FA0EF201EB045129
:10317000BDE8104058BF7047401C1CBFB2F1004F63
:10318000704700280CBF491C20F00100704712EB6B
:10319000020E43EB030218BF4FF0010E4EEA42024B
:1031A000ACF1200CDCF11E0E54D943FA0CFE10EBEE
:1031B0000E0051F1FF31CCF11E0ED5D50EF1010EEE
:1031C00012FA0EFE404141EB010101EB445C5FEA63
:1031D0005C5C10D910EBDE7001EB045138BFBEF11E
:1031E000004FBDE8104018BF704700280CBF491CB5
:1031F00020F00100704730D24FEAD42C11F50011B5
:1032000024F400641BD0B1FA81F20B3AA41AA41E74
:10321000D2F12003914030FA03F31943904001EBBF
:10322000CC71002C01EB0451BDE81040A8BF7047E1
:1032300001F1C0414FF0000001F000417047B0FAC9
:1032400080F310FA03F100D110BDE41A173C4805D1
:10325000C90AE4E701EB045110BD491001EB045128
:10326000BDE810404FEA300002E04FF00001704727
:103270004A0008BF0042F8D0B2F5001F28BF7047CF
:1032800001F000414FF0000070479EEA445F07D014
:1032900011EA5E0FBDE8104004BF00210020704716
:1032A000BDE8104070B5FFF7CBFE00BF40DFF63E33
:1032B00083F00041104670470000E0FF43004FEAF2
:1032C000D30C4FEA3C0C43401FBF40070CF1605148
:1032D00013F0FE4F70471CF0006F03D100200CF07C
:1032E000004170470CF0004343EA507010B540EACB
:1032F000CC0000F0C4F800BF000000924FEA0001CB
:10330000FFF7ECBE4FF000414FF00000A1F50021A7
:1033100070470000C10DD1F19E0206DB4FEA002389
:1033200043F0004323FA02F07047004207D54FEA0A
:103330004001B1F1FE4F02D24FF00000704710B5CE
:1033400000F09DF849922480002070476FEA200029
:1033500070470000B0FA80F310FA03F2C3F19D0346
:103360000AD0D90501EB1220530638BF704700F18F
:10337000010008BF20F00100704700004FF47F0CEF
:103380001CEAD0121EBF1CEAD11392EA0C0F93EA7A
:103390000C0F00F0478090EA010F48BF42F48072A2
:1033A0004FF0004C4CEA00204CEA012102EB0302F2
:1033B000A0FB0113A2F50002002918BF43F001038E
:1033C0005B0028BF4FEA330342EB22425FEA132C33
:1033D0004CEBC2502EBFBCEB436FB2F57C0F704775
:1033E0004FEA036CBCF1004F08BF20F00100B2F5BA
:1033F0007C0F38BF70470BD582F0FF0212F5803F7B
:10340000C8BF704700F1C040D8BF00F0004070470F
:1034100000F5000C5FEA4C0C48BF7047B0F1C040AB
:1034200000F073B890EA010F0CEAD11348BF42F4E0
:103430008072624538BF634504D280EA010000F023
:103440000040704710B500F01AF800BF8900013E37
:1034500000F007B800F009B85FEA410C5FEA1C6CA5
:1034600008D080EA010000F050B85FEA400C5FEA43
:103470001C6CF6D14FF00040A0F5800070470EF1B3
:10348000020E2EF0030E5EF8044B244204D44FEAE1
:103490004102B2F17F4F11D84FEA4003B3F17F4FA1
:1034A0000CD80ED14FEAD07CB2F17F4F0CEB4C0C14
:1034B0000CF1020C08BF4CEBD17C04E04FF0080C7F
:1034C00001E04FEAD17C0CEB4C0324FA03F404F046
:1034D0000704B4F1040C06D20EEB840CBDE81040D6
:1034E0004CF0010C6047DFE80CF0070802024FF0D7
:1034F0000040A0F5800010BD0846420018BFD2F180
:10350000807288BF00F0004010BDFF2141EAD0501A
:10351000C0057047FDF748B800010102010202032F
:103520000102020302030304010202030203030473
:10353000020303040304040501020203020303045B
:103540000203030403040405020303040304040543
:103550000304040504050506010202030203030433
:103560000203030403040405020303040304040523
:10357000030404050405050602030304030404050B
:1035800003040405040505060304040504050506F3
:1035900004050506050606070102020302030304EB
:1035A00002030304030404050203030403040405E3
:1035B00003040405040505060203030403040405CB
:1035C00003040405040505060304040504050506B3
:1035D00004050506050606070203030403040405A3
:1035E0000304040504050506030404050405050693
:1035F000040505060506060703040405040505067B
:103600000405050605060607040505060506060762
:1036100005060607060707083031323334353637DA
:103620003839414243444546403058003031323306
:103630003435363738396162636465664030780006
:1036400002400000000000A0000000000540000053
:10365000000000C8000000000C4000000000409C7A
:1036600000000000194000000020BCBE0000000067
:1036700034400000BFC91B8E00000004B5400000AC
:10368000504BCFD06607E2CF010000006C41000034
:103690003E8251AADFEEA73401000000D9420000AB
:1036A000DCB5A0E23A301F97FFFFFFFFB4450000F2
:1036B000FD25A0C8E9A3C14FFFFFFFFFFF3F0000AA
:1036C0000000008000000000FF3F000000000080BC
:1036D0000000000010370008000000207400000007
:1036E000280100088437000874000020A4090000A5
:1036F000440100081C00000043000000F8FFFFFF29
:103700000C0000000E0000000F0000002E00000062
:1037100000000000000000000000000000000000A9
:103720000000000005000000030000000000000091
:10373000000000000000000000A24A040000000099
:103740000000000001020304060708090000000051
:10375000000000000000000000000102030401025C
:10376000030406070809020406080000FF00000021
:10377000020C00000000000000000000000000003B
:043780000000000045
:04000005080001AD41
:00000001FF
